:020000040800F2
:10000000001B0020110200084D07000845070008EA
:10001000490700084D0400080D1400080000000006
:100020000000000000000000000000004112000875
:1000300041070008000000005107000845120008B1
:100040002B0200082B0200082B0200082B020008DC
:100050002B0200082B0200082B0200082B020008CC
:100060002B0200082B0200082B0200082B020008BC
:100070002B0200082B0200082B0200082B020008AC
:100080002B0200082B0200082B02000800000000D1
:100090000000000000000000000000002B0200082B
:1000A0002B0200082B0200082B0200082B0200087C
:1000B0002B020008BD1300082B0200082B020008C9
:1000C0002B0200082B0200082B0200082B0200085C
:1000D0002B0200082B0200082B0200082B0200084C
:1000E0002B0200082B020008CD1300082B02000889
:1000F0002B0200082B0200082B0200080000000061
:100100002B020008000000002B0200082B02000850
:100110002B0200082B0200082B0200082B0200080B
:100120002B0200082B0200082B0200082B020008FB
:100130002B0200080000000000000000000000008A
:10014000000000000000000000000000C1130008D3
:1001500000F002F800F04CF80AA090E8000C82448D
:100160008344AAF10107DA4501D100F041F8AFF26A
:10017000090EBAE80F0013F0010F18BFFB1A43F085
:10018000010318470C4701002C4701000A4410F8EE
:10019000014B14F00F0508BF10F8015B240908BFDC
:1001A00010F8014B6D1E05D010F8013B6D1E01F8D3
:1001B000013BF9D1641E03D0641E01F8015BFBD141
:1001C0009142E4D37047000000230024002500265C
:1001D000103A28BF78C1FBD8520728BF30C148BFAA
:1001E0000B6070471FB507F0E1F81FBD10B510BDDB
:1001F00000F0F1F81146FFF7F5FF02F0F1FF00F013
:100200000FF903B4FFF7F2FF03BC00F013F900008D
:100210000948804709480047FEE7FEE7FEE7FEE79A
:10022000FEE7FEE7FEE7FEE7FEE7FEE704480549D6
:10023000054A064B7047000055120008510100089E
:1002400000130020001B00200017002000170020D2
:10025000032A40F2308010F0030C00F0158011F8F2
:10026000013BBCF1020F624498BF11F801CB00F8CA
:10027000013B38BF11F8013BA2F1040298BF00F81E
:1002800001CB38BF00F8013B11F0030300F071808F
:10029000083AC0F0088051F8043B083A51F804CB02
:1002A000A0E80810F5E7121D5CBF51F8043B40F8C8
:1002B000043BAFF30080D20724BF11F8013B11F8D3
:1002C00001CB48BF11F8012B24BF00F8013B00F817
:1002D00001CB48BF00F8012B70474FF00002042902
:1002E000C0F0128010F0030C00F01B80CCF1040C65
:1002F000BCF1020F18BF00F8012BA8BF20F8022B99
:10030000A1EB0C0100F00DB85FEAC17C24BF00F83E
:10031000012B00F8012B48BF00F8012B70474FF06C
:10032000000200B5134694469646203922BFA0E845
:100330000C50A0E80C50B1F12001BFF4F7AF090751
:1003400028BFA0E80C5048BF0CC05DF804EB890042
:1003500028BF40F8042B08BF704748BF20F8022B85
:1003600011F0804F18BF00F8012B7047704770479D
:10037000704710B5203AC0F00B80B1E81850A0E8E3
:100380001850B1E81850A0E81850203ABFF4F5AF63
:100390005FEA027C24BFB1E81850A0E8185044BFBF
:1003A00018C918C0BDE810405FEA827C24BF51F82C
:1003B000043B40F8043B08BF7047D20728BF31F820
:1003C000023B48BF11F8012B28BF20F8023B48BF71
:1003D00000F8012B7047754600F032F8AE46050074
:1003E0006946534620F00700854618B020B5FFF750
:1003F0001DFFBDE820404FF000064FF000074FF012
:1004000000084FF0000BAC46ACE8C009ACE8C009EE
:10041000ACE8C009ACE8C00921F007018D4670477F
:1004200010B50446AFF300802046BDE81040FFF74A
:10043000E8BE000001491820ABBEFEE7260002001E
:10044000004870473801002070470000FEE70000B8
:100450002DE9F04182B040F21027C2F200070C46AD
:1004600005464FF0000807F12C014FF410600622FA
:10047000CDF8048001F02CF997F82C1097F82D2076
:1004800097F82E3097F82F001143194341EA0003E3
:1004900097F8301097F831200B43134311D140F6F1
:1004A0000000C0F2DC003E4646F82C0F4FF410600E
:1004B00031460622A6F8048001F078F9F078317907
:1004C0007279431848401344504045F2786118440B
:1004D000C1F234210844C7E9074001AC4FF4706011
:1004E00021460422BD7001F061F94FF4807021466D
:1004F000042201F05BF940F20000C2F200000A2180
:10050000C7F818804160A7F8008002B0BDE8F0810C
:10051000F0B581B040F21026C2F20006307806280D
:1005200004D10524204601B0F0BD00BFB0784FF4DF
:10053000427101EB401001F099F8222805D0B07803
:1005400002214422002304F0F3FC03F077F996F92A
:10055000001004290ED8DFE801F003111F557300C5
:100560000020B06003F0DEFE01243470204601B0AC
:10057000F0BD00BF0124204601B0F0BD02287DD1AE
:10058000F0690069B06004F0E9F8022030700124DD
:10059000204601B0F0BD00BF062879D0C0B20528C2
:1005A0006CD14FF4D85001F061F804464FF4D850A4
:1005B0000321032701F0C8F8B07844F6610141F245
:1005C000883506F10803C0F601011122009504F0F8
:1005D00033FB05464FF4D850214601F0B5F815F12C
:1005E0000D007DD140F20004C2F20004A0688047F3
:1005F0000020B0610A20606037800124204601B0ED
:10060000F0BD00BF40F20005C2F200052868411CA1
:100610003AD0B1690424B1EB500F7FF683AFB068D4
:10062000316AC6F80300481C306204F097F80020D5
:10063000B0610A2068603480204601B0F0BD00BF80
:10064000062833D0C0B2052818D1F178327A40F2AA
:10065000000500209142C2F20005707034D130795B
:10066000717A884230D17079B17A88422CD1B079D0
:10067000F17A884228D1042429E000BF01B0BDE806
:10068000F04001F0C5BB00BF0424204601B0F0BD1E
:100690000020B06140F20000C2F200000A210124F3
:1006A00041603480204601B0F0BD00BF0020B06141
:1006B00040F20000C2F200000A21416001203080B7
:1006C0000424204601B0F0BDE868804703240020E0
:1006D000B0610A20686003203080204601B0F0BD80
:1006E00003F0F6FCB069B169091A01290BD8B169A8
:1006F000091A012907D8B169091A012903D8B16972
:10070000091A0229EFD3002440F20000B461C2F2BA
:1007100000000A2141600069747080473470012430
:10072000204601B0F0BD000010B540F21024C2F226
:100730000004A07801F0B2FB0620207010BD00007C
:1007400070470000FEE70000FEE700007047000071
:1007500070470000F0B581B040F24427C2F20007B4
:1007600014463A780D46532A06463DD03846A8210D
:10077000FFF7D5FD03203861786144F6730140F23C
:10078000F020C0F60101C2F20000B961F8614FF437
:10079000806038620020B8627862F862396640F2A0
:1007A000FC11C2F20001013179661021B9665321B2
:1007B0003867F8667867BFF35F8F39704521472245
:1007C0007970BA70FA703971522120227971BA7138
:1007D000F971542139727972B872F872387378737A
:1007E000B873F873BFF35F8FEFF311874FF02001F9
:1007F00081F3118830462946224600F005F887F338
:10080000118801B0F0BD00002DE9F04F81B040F239
:10081000442300EB4000C2F2000303EBC007F86A78
:1008200014460228894613D0012849D058B93D46BC
:1008300055F8246F6868B04240F28080F143084464
:10084000A04280F082800026304601B0BDE8F08FE3
:1008500057F8245F0026381DA7F1040BBA46A7F10C
:100860000808009022E000BFDBF80000EA431144D2
:100870000144471BB94238BF0F46D8F80000A742D1
:1008800028BF2746284449463A46FFF7E1FCDBF8F3
:1008900000007919E41B0D1A3E44B94418BF0D46F7
:1008A000002CBFF35F8FCAF800505FD0009801683A
:1008B000A942D9D9EA43DBF800001144D9E700BFC7
:1008C000BA465AF8245FDAF80410A94204D9EA4378
:1008D000386A114404E000BF386AEA431144014415
:1008E000A14238BF0C46461B57F81C0FB44228449F
:1008F0000ED249462246FFF7ABFC6019BFF35F8F6B
:10090000CAF800002646304601B0BDE8F08F00BFAF
:1009100049463246FFF79CFCA4EB0608386809EB11
:1009200006014246FFF794FCBFF35F8FCAF80080D0
:100930002646304601B0BDE8F08F00BF396AF24369
:1009400010440844A042FFF47EAF57F81C0F7968AA
:100950003044A1EB060AA2450CD949462246FFF7CE
:1009600077FC3019BFF35F8F28602646304601B010
:10097000BDE8F08F49465246FFF76AFCA4EB0A082F
:10098000386809EB0A014246FFF762FCBFF35F8F4C
:10099000C5F800802646304601B0BDE8F08F000063
:1009A00082B080B582B0CDE9042304AA019201AAE5
:1009B00000F006F802B0BDE8804002B070470000C9
:1009C0002DE9F04F9BB0154606AA1692402200264C
:1009D00005901A900DF1580842F2107900208A46CD
:1009E0001792CDE918660AE03B46CDF804B000F056
:1009F0001DFF19985146B0F1FF3F40F3FD821AF8F0
:100A0000013B252B1CD0002B00F0E682DDE91720EE
:100A1000411C914207D8169A13541998179A01301D
:100A20001990084618919042E3D116991A98FFF749
:100A300091FE1899884240F0C9821896D9E700BF04
:100A400001F1040A4FF0000B1AF8031CA1F1230373
:100A50000D2B00F25F800222DFE803F0085C5C5C93
:100A60005C5C5C5C0A5C0C5C5C0D00BF082202E014
:100A7000042200E001221AF8021C4BEA020BA1F149
:100A800023030D2B00F24E800222DFE803F0074B18
:100A90004B4B4B4B4B4B094B0B4B4B0C082202E087
:100AA000042200E001221AF8011C4BEA020BA1F11A
:100AB00023030D2B42D80222DFE803F00840404018
:100AC000404040400A400C40400D00BF082202E078
:100AD000042200E001229AF800104BEA020BA1F177
:100AE00023030D2B20D80222DFE803F0101E1E1E68
:100AF0001E1E1E1E121E0E1E1E0800BF4BEA020BFB
:100B00000AF1040AA0E700BF0122F7E70822F5E78F
:100B10000422F3E7AAF1030AA1F13A0212F10A0F43
:100B200007D312E0AAF1020AA1F13A0212F10A0F68
:100B30000BD200222E2947D096E000BFAAF1010A6D
:100B4000A1F13A0212F10A0FF3D30AF1020A0022CC
:100B500002EB820201EB42021AF8011C303AA1F1C9
:100B60003A0313F10A0F2BD302EB820201EB42028C
:100B70009AF80010303AA1F13A0313F10A0F21D389
:100B800002EB820201EB42029AF80110303AA1F125
:100B90003A0313F10A0F63D302EB820201EB420224
:100BA0009AF80210303AA1F13A0313F10A0F0AF150
:100BB000040ACDD2AAF1020A2E2905D054E000BFC2
:100BC000AAF1010A2E294FD1534613F8011FA1F1B2
:100BD0003A0717F10A0F03D200279A4646E000BFF2
:100BE0000AF1020A002700BF9AF8003007EB8707D6
:100BF00001EB4701A3F13A0717F10A0FA1F1300702
:100C000034D39AF8011007EB870703EB4703A1F1F0
:100C10003A0717F10A0FA3F13007C0F0F7809AF8EE
:100C2000023007EB870701EB4701A3F13A0717F101
:100C30000A0FA1F13007C0F0ED8007EB870103EB4D
:100C400041039AF80310A3F13007A1F13A0313F11D
:100C50000B0F0AF1040AC7D8AAF1010A06E000BF87
:100C60000AF1010A2E29AFD0002700BF9AF8001020
:100C700001F0FB03682B15D19AF8011001F0FB037A
:100C8000682B17D19AF8021001F0FB03682B3DD1B5
:100C90009AF803100AF1040A01F0FB03682BE5D06F
:100CA0000AE000BF0AF1010AA1F15803202B07D97D
:100CB00032E000BF0AF1020AA1F15803202B2BD821
:100CC000DFE803F01C1A1A1A1A1A1A1A1A1A1A3614
:100CD000441A1A1A1A1A1A1A1A1A1A1A6E1A1A7A96
:100CE0001A121A1A1C0000BF2868011D2960016829
:100CF000009240460A2277E67BE600BF2868011D85
:100D0000296001680092404610226DE60AF1030A4C
:100D1000A1F15803202BD3D925297FF46AAEDDE950
:100D20001720411C91423FF67EAE169A252373E6AA
:100D3000DDE917202B68411C1F1D91422F603FF6F3
:100D400072AE1A68169B1A5467E600BF29680B1D1D
:100D50002B600C68002C2146C4F1000348BF1946E3
:100D60000A2904935AD34FF0020800BF64295FD3C5
:100D7000B1F57A7F56D3494558D341F25973CDF234
:100D8000B713A1FB033648F29F63C0F201039942F7
:100D90004FEA563108F10408E8D8A8F1010847E005
:100DA00028681022011D2960016808200090404633
:100DB000082301961BE600BF29680A1D2A600C68FB
:100DC00006E000BFB0F1FF3F04F101047FF711AE70
:100DD0002778002F3FF40DAEDDE917214B1C93421D
:100DE00007D8169847541998179A0130194618933E
:100DF00019909142E6D116991A98FFF7ABFC189911
:100E0000884240F0E38019981896DBE70AF1010A5E
:100E10002CE700BF0AF1020A28E700BF4FF00108E3
:100E200006E000BF08F1010802E000BF08F1020877
:100E3000B84598BFB8466AB10021002C48BF0121CF
:100E40000BF0040341EA9301A2EB01091BF0020637
:100E500005D127E04FF000091BF0020622D00FBB9E
:100E6000002800F1AB80B4F1FF3F49DD5FEA4B7130
:100E700069D5DDE917214B1C934208D816982B221F
:100E800042541998179A01301946189319909142B3
:100E900051D116991A98FFF75DFC1899884247D0EE
:100EA00094E000BF5FEACB71DAD1B9F1000FD7D07F
:100EB000039603E00028B14600F18080A9F1010605
:100EC0004E4538BFC84539D2DDE917214B1C934246
:100ED00008D81698202242541998179A01301946BA
:100EE000189319909142E5D116991A98FFF732FCA0
:100EF000189988426AD1199800211891DAE700BF41
:100F0000DDE917214B1C934208D816982D22425434
:100F10001998179A013019461893199091420FD1D8
:100F200016991A98FFF716FC1899049C88424DD11F
:100F3000002018901998002805D53FE0039E8FE700
:100F4000049C00283AD47EB90DF158084046214649
:100F50000A223B46CDF80090CDF804B000F066FCC4
:100F6000002642F2107944E50BF001013943EBD140
:100F7000B9F1000FE8D0A9F101064E4538BFC845C8
:100F8000E2D2DDE917214B1C934208D81698302293
:100F900042541998179A01301946189319909142A2
:100FA00009D116991A98FFF7D5FB189988420DD1E7
:100FB0001998002118910028B146DCD500260DF1C2
:100FC000580842F21079FFF714BD00BF4FF0FF3010
:100FD0001BB0BDE8F08F00BF40B1189A52B1059820
:100FE00006A9FFF7B7FBDDE9181004E000201BB0ED
:100FF000BDE8F08F002108441BB0BDE8F08F000071
:1010000010B540F60841C4F201010868802202EAE6
:10101000D01C4FF400528A60CA600B6840208A607E
:10102000CA6000EA13200B68844420208A60CA60EA
:1010300000EA53200B68844410208A60CA6000EAEA
:1010400093200B68844408208A60CA6000EAD32099
:101050000B68844404208A60CA6000EA133E0B686F
:1010600002208A60CA6000EA53340B680CEB0E0061
:101070002044C3F380331843C0B28A60CA6010BDF5
:1010800041B2B1F1FF3F40F610414FF40042C4F2CB
:101090000101CCBF4A600A604FF400520A604A6006
:1010A0004FF40042430654BF4A600A604FF40052B6
:1010B0000A604A604FF40042830654BF4A600A60E7
:1010C0004FF400520A604A604FF40042C30654BF16
:1010D0004A600A604FF400520A604A604FF40042CE
:1010E000030754BF4A600A604FF400520A60430786
:1010F0004A604FF4004254BF4A600A604FF4005205
:1011000083070A604A604FF4004254BF4A600A6095
:10111000C0074FF400524FF400400A604A600CBF11
:10112000486008604FF40050086048607047000055
:10113000F0B541B2B1F1FF3F40F610414FF400422B
:10114000C4F20101CCBF4A600A604FF4005251F86A
:1011500008CC0A6043064A604FF4004254BF4A601C
:101160000A604FF40052830651F808EC0A604A60A6
:101170004FF4004254BF4A600A604FF40053C40663
:1011800051F8082C0B604B604FF4004354BF4B6088
:101190000B604FF40054050751F8083C0C604C609C
:1011A0004FF4004454BF4C600C604FF4005551F8AC
:1011B000084C0D6046074D604FF4004554BF4D602C
:1011C0000D604FF40055870751F8086C0D604D60B5
:1011D0004FF4004554BF4D600D60C0074FF40057F9
:1011E0004FF4004051F8085C0F604F600CBF48603E
:1011F0000860042000EA1630082606EAD4241026E7
:1012000006EA9323202606EA5222402606EA1E27F3
:10121000802606EADC1637443A441A442244022364
:1012200051F8087C03EA553310441844C7F3803260
:1012300010434FF40052C0B20A604A60F0BD000093
:101240007047000040F2EC20C2F20000016801315A
:10125000016070474EF68851CEF200010A6841F2F3
:10126000000042F47002C4F202000A60016841F01A
:10127000010101600168890709D4016889075CBF21
:1012800001685FEA817102D401688907F2D541687B
:101290004FF6FF7221F0030141600168CEF6F6229D
:1012A000114001604FF47F01816000214160C16203
:1012B000016821F480210160016841F480310160FE
:1012C0004FF6FC71026892030BD4026892035CBF74
:1012D00002685FEA823204D419B1026804399203C9
:1012E000F0D50168890301D4FEE700BF42F2000196
:1012F000C4F202010A68032363F302020A60416830
:101300004FF6FF7241604168CDF6C372416041689B
:1013100041F48061416041681140416041684FF291
:10132000000241F0005141F454114160C16ACBF612
:10133000FE721140C162C16A41F4843141F0190169
:10134000C162016841F0806101600168090109D44E
:10135000016809015CBF01685FEA011102D40168FC
:101360000901F2D5016841F08071016001688901CD
:1013700009D4016889015CBF01685FEA811102D468
:1013800001688901F2D5416821F00301416041689B
:1013900041F0020141604168090709D44168090729
:1013A0005CBF41685FEA017102D441680907F2D568
:1013B0004FF00060002102F033BA000070470000D7
:1013C00040F6F460C2F2000005F004B880B540F6C3
:1013D000F460C2F20000C07990B1FFF73BFF40F229
:1013E0009810C2F20000006802F03CFC40F20C5081
:1013F00002F008FC40F6F460C2F2000004F02AFAA1
:101400004FF48020BDE8804001F0E2B9FEE7000023
:1014100040F61000C4F201004FF400410160704733
:101420002DE9F041044620300EC0642000F0F6FFA4
:101430000125E577606A8047216A90208847216A04
:1014400000204FF000088847216A00208847216A61
:1014500000208847216A00208847216A064600202C
:101460008847A16A0746884747EA062141F2F0000B
:10147000084480B2092821600AD808A151F8200048
:101480000025010102028301C4E90321C4E9050327
:10149000284684F81F80BDE8F08100BF02000000EC
:1014A0000400000008000000100000002000000000
:1014B0004000000080000000000100000002000069
:1014C0000004000040F61400C4F201004FF4805103
:1014D000C0F8FC134FF400410160704740F6104023
:1014E000C4F201004FF480510160704710B58EB016
:1014F00005A9012000F08AFD0DF1320408202146E3
:1015000000F01CFE44F61C01C0F60101002022463A
:10151000FFF746FA9DF816009DF814209DF8153047
:101520009DF817109DF819C09DF818408DE813001C
:1015300021A10020CDF80CC0FFF732FA9DF81C0065
:101540009DF81A209DF81B309DF81D40009024A1A5
:1015500000200194FFF724FA9DF824009DF8222032
:101560009DF823309DF82540009022A10020019491
:10157000FFF716FA9DF820009DF81E209DF81F30F9
:101580009DF82140009020A100200194FFF708FA67
:101590009DF828009DF826209DF827309DF82940C9
:1015A00000901EA100200194FFF7FAF920A100206D
:1015B000FFF7F6F90EB010BD4D41433A2025303209
:1015C000583A253032583A253032583A2530325878
:1015D0003A253032583A253032580D0A00000000C2
:1015E0005349503A2025642E25642E25642E256407
:1015F0000D0A00004741523A2025642E25642E250D
:10160000642E25640D0A00005355423A2025642EAD
:1016100025642E25642E25640D0A0000444E533A9D
:101620002025642E25642E25642E25640D0A0000D5
:101630003D3D3D3D3D3D3D3D3D3D3D3D3D3D3D3DDA
:101640003D3D3D3D3D3D0D0A0000000040F61000CF
:10165000C4F201004FF40041016040F61440C4F2AE
:1016600001004FF48051016070470000B0B582B0B6
:1016700040F22005C2F20005E9680446884768691F
:101680008047686A70B1AA6A62B1200C8DF80500C3
:10169000200A8DF806000DF1050003218DF80740A2
:1016A00090470AE0296AC4F307408847296AC4F3CF
:1016B00007208847296AE0B28847E8698047A96916
:1016C0000446884728698047204602B0B0BD000024
:1016D000F0B581B040F22007C2F200070D46F9686C
:1016E00014460646884778698047786A90B1BA6A96
:1016F00082B1300C8DF80100300A8DF802000DF136
:10170000010003218DF8036090477A6A284621463C
:10171000904713E0396AC6F307408847396AC6F331
:1017200007208847396AF0B288473CB1013D00BFC5
:10173000F8698047013C05F8010FF9D1B869804785
:101740003869804701B0F0BDF0B581B040F22006A5
:10175000C2F200060C46F16805468847706980476A
:10176000B26A45F004076AB1280C8DF80000280A17
:101770008DF80100684604218DF802708DF8034051
:1017800090470DE0316AC5F307408847316AC5F3D9
:1017900007208847316AF8B28847316A204688476F
:1017A000B06980473069804701B0F0BD2DE9F04154
:1017B00082B040F22007C2F200078846F96814465A
:1017C0000646884778698047BA6A46F004058AB1B8
:1017D000300C8DF80500300A8DF806000DF105007B
:1017E00003218DF807509047BA6A4046214690473A
:1017F00014E000BF396AC6F307408847396AC6F368
:1018000007208847396AE8B288473CB1A8F101054A
:10181000396A15F8010F8847013CF9D1B86980474A
:101820003869804702B0BDE8F08100002DE9F04F33
:1018300081B08B46DDE90A911F4615469345044663
:1018400002D24FF001081FE04FF00408584600BFD5
:10185000B0FBF5F0A84211D3B0FBF5F0A84211D3CC
:10186000B0FBF5F0A8420FD3B0FBF5F008F1040887
:10187000A842EDD2A8F1030806E000BFA8F10208D3
:1018800002E000BFA8F10108B84598BFB846B9F119
:10189000000F01F00100009034D098BB202688078B
:1018A00048BF30264FF0000A2020002F18BF064600
:1018B00008E000BFC4F808A0E068A9F10109B0F190
:1018C000FF3F1FDDB9F1000F1CD0C8451AD2D4E983
:1018D0000120411C914207D822681654E0686268D2
:1018E0000130E0600846A1609042E5D1216820699E
:1018F000FEF730FFA1688842DCD04FF0FF30E06097
:10190000A9F10109E068002859D4012602E000BFCE
:10191000013F6E43022F01D3013F03E0BBFBF6F111
:10192000A9421BD3012F05FB06F601D9013F03E0B5
:10193000BBFBF6F1A94211D3012F05FB06F601D935
:10194000013F03E0BBFBF6F1A94207D3012F05FBE2
:1019500006F6DDD8BBFBF6F1A942DAD2A2682EA7C3
:101960006168BBFBF6FA531C8B4209D817F80A00D2
:1019700021688854E068616801301A46A360E0601D
:101980008A4209D121682069FEF7E4FEA2689042EC
:101990000CD1E0680022A26000280AD4B6FBF5F161
:1019A0000AFB16BBAE420E46DAD202E04FF0FF3021
:1019B000E0600099002918BFB9F1000F02D101B011
:1019C000BDE8F08F2025A9F101064E4538BFC84576
:1019D000F5D26168531C8B4207D820688554E068B3
:1019E000616801301A46A360E0608A4209D121682B
:1019F0002069FEF7AFFEA168884207D1E0680022A7
:101A0000A260B0F1FF3FB146DDDCD8E74FF0FF3018
:101A1000E06001B0BDE8F08F303132333435363715
:101A20003839414243444546B0B50C46097805462D
:101A300001F0030102290FD0E1B995F8CE00022888
:101A400003D095F8CE00032814D16088012811D165
:101A5000002085F8A203B0BDA08895F8CE10032918
:101A600008D1618821B940F08001C9B2802903D131
:101A70000020B0BD0120B0BDC1B2284604F0F8FB83
:101A8000D5F8B4032146C268284690470020B0BD6F
:101A900090F8CE2000F1CC01032A07D0022A0FD102
:101AA0000A78002A1CBF0120704701E00A783AB189
:101AB000C0F8D8100121C0F8E4100020704700BF22
:101AC00001207047B0B50D460978044601F00301C6
:101AD000012929D0002931D169884FF0FF3000EB6E
:101AE00011220E2A4FF0010047D8DFE802F0093733
:101AF0002D46464646464646464646463D0000BFBB
:101B0000D4F8B00300680178C4F8D800A4F8E41051
:101B1000E988402904BF0820C4F8E4000120D4F873
:101B2000E41069BB41E000BFD4F8B4032946C268A1
:101B300020469047D4F8E41011BB36E00120D4F8D9
:101B4000E410E9B931E000BFC8B2EE2834D8D4F8C7
:101B5000B013C96851F82000017809E0D4F8B00347
:101B60004068418804E000BFD4F8B0038068817801
:101B7000A4F8E410C4F8D8000120D4F8E410A1B10E
:101B8000EA88002A08BFB0BD91420BD2B4F8D40055
:101B9000814204D3B1FBF0F202FB101030B10020FF
:101BA000B0BD00BF0020C4F8E420B0BD012084F81F
:101BB000AD030020B0BD00BF0120D4F8E41000291F
:101BC000DED1F2E7024690F8CE0003281CBF0120C8
:101BD0007047888810F0FE0F4FF0010018BF704763
:101BE000D2F8B413C2F8E40001310020C2F8D810D2
:101BF000704700000B788A8803F00301022923D084
:101C0000012915D071BB90F8CE10022905D090F8AB
:101C1000CE1003291CBF0120704790F8A02390F834
:101C2000A213002A18BF0122002918BF911C23E02B
:101C300090F8CE1003294FF0010102D112F0FE02FC
:101C40001FD00846704700BF90F8CE10032909D175
:101C5000D1B2802908D201EB410100EBC10101F2B0
:101C60003A2108E00120704702F07F0101EB4101B9
:101C700000EBC101D231097840F2F062C2F20002F9
:101C8000117040F2F061C2F20001C0F8D8100221D8
:101C9000C0F8E4100021084670470000012070479A
:101CA0008A8852B9CA8842B9897801F07F0180F8E0
:101CB000CD1090F8CE20032A02D10120704700BF3A
:101CC00042690029136823F4FE631360136843EA32
:101CD000011313604FF0020208BF012280F8CE20EA
:101CE0000020704770B50446488840F2F266C2F2A0
:101CF000000610F0FE0F307002D0012070BD00BF52
:101D000094F8CE10032911D00229F6D1010623D070
:101D1000D4F8B4134A68C1B220469047307884F8AA
:101D2000CC00032084F8CE00002070BD010615D041
:101D300094F8CC20C1B28A4204BF002070BDD4F810
:101D4000B403826820469047D4F8B40331784268DF
:101D5000204684F8CC109047002070BDD4F8B4031E
:101D600000218268204600259047307884F8CC0016
:101D7000022084F8CE00284670BD00000020704785
:101D800080B50A7802F00302022A15D092B990F8C1
:101D9000CE20022A03D090F8CE20032A0AD1498807
:101DA00001291CBF002080BD012180F8A213002062
:101DB00080BD00BF012080BD8A8890F8CE30032B03
:101DC0001CBF012080BD498821B942F08001C9B201
:101DD000802901D1002080BDD1B204F02FFA00206B
:101DE00080BD000080B590F8CE20032A03D18A88F8
:101DF00012F0FE0F02D0012080BD00BFD0F8B42346
:101E0000126902B19047002080BD00000020704799
:101E1000B0B540F21024C2F2000494F90100012888
:101E200012DC40F20005C2F200056868A169884230
:101E300024BF0120B0BD94F90000042818BF022877
:101E40000ED102F08BFC0FE094F90000012815D0B0
:101E5000042801D0022815D102F064FA01200EE016
:101E6000012801D102F05EFA0020A061A06961782A
:101E70000A306860013101206170B0BD002020701F
:101E800001E000BF012040F200020021C2F2000286
:101E90000A23A16153606170B0BD0000082882BFB1
:101EA000FF2040B2704770B5044646014FF484707D
:101EB00000EB441528461021FFF746FC2846FFF7A3
:101EC000D5FB0028FAD106F502701F21FFF73CFC74
:101ED00040F2E011C2F2000101200A884B88A040C4
:101EE000824323EA00000A80488001EB440000227C
:101EF0008281081906F54274027100BF2046FFF77F
:101F0000B5FB0028FAD10120BDE8704040B270470F
:101F10002DE9F041082803D9FF2040B2BDE8F08147
:101F20004401054604F1080016460F46FFF79EFBE4
:101F300000F00F00012837D104F542784046FFF742
:101F400095FB132834D1386800BA013810F1030F1B
:101F500032D8AEB304F6084039460422FFF726FC17
:101F600041F208002044310AFFF7EEFB41F208106D
:101F70002044F1B2FFF7E8FB04F5847630460421F3
:101F8000FFF7E2FB3046FFF771FB0028FAD140F281
:101F9000E010C2F200000088E840C00714D0002022
:101FA00040B2BDE8F08100BFFB2040B2BDE8F08147
:101FB000FD2040B2BDE8F081F42040B2BDE8F081E0
:101FC000F52040B2BDE8F08104F502754046FFF708
:101FD0004DFB17280ED02846FFF748FB00070DD40D
:101FE0004046FFF743FB00284FF0FC00EED140B223
:101FF000BDE8F081012040B2BDE8F081284608210B
:10200000FFF7A2FBF32040B2BDE8F081B0B5052890
:1020100057D80C46DFE800F0042A5058607200BF21
:102020004FF4106021460622FFF7C0FB04F10E01B9
:102030004FF480700422FFF7B9FB04F10A014FF45A
:10204000A0600422FFF7B2FBA11D4FF470600422D0
:10205000FFF7ACFB40F2D810D4F81210A269C2F21C
:102060000000C0E90012002568B2B0BD4FF4106056
:1020700021460622FFF72CFB04F10E014FF480707D
:102080000422FFF725FB04F10A014FF4A0600422AB
:10209000FFF71EFBA11D4FF470600422FFF718FB31
:1020A00040F2D810C2F20000D0E90010C4F81210BB
:1020B000A061002568B2B0BD24686FF03A00044208
:1020C00030D0FF2568B2B0BD00200025FFF7CEFA62
:1020D000206068B2B0BD00BF21784FF4D850FFF740
:1020E00033FBE1784FF4C850FFF72EFBA1784FF493
:1020F000D050FFF729FB002568B2B0BD4FF4D8508F
:10210000FFF7B4FA20704FF4C850FFF7AFFA054656
:102110004FF4D050FFF7AAFA40EA0520608000256E
:1021200068B2B0BD00200025FFF7A0FA2043C1B27D
:102130000020FFF709FB68B2B0BD0000B0B50F2862
:1021400032D80C46DFE810F0100034003E001600D4
:102150005000600070007E008E00A4001C00BC00D7
:102160001200F2002200F80005F06CF8002040B2E6
:10217000B0BD00BF206804F04BFF002040B2B0BDEE
:10218000204605F09FF8002040B2B0BD4FF4385013
:10219000FFF76CFA00F038003038B0FA80F04009F0
:1021A0002070002040B2B0BDFF2040B2B0BD00BFE3
:1021B0002146002C18BF08312046BDE8B04004F08D
:1021C00081BF00BF4FF4A850FFF750FA05464FF407
:1021D000B850FFF74BFA05F0F00141EA002020600B
:1021E000002040B2B0BD00BF24684FF4B050E1B24F
:1021F000FFF7AAFAC4F307214FF4C050FFF7A4FA7F
:10220000002040B2B0BD00BF4FF4B050FFF72EFA2F
:1022100005464FF4C050FFF729FA45EA0020206038
:10222000002040B2B0BD00BF61784FF49850FFF776
:102230008BFA21784FF4A050FFF786FA002040B2C5
:10224000B0BD00BF4FF49850FFF710FA05464FF4A9
:10225000A050FFF70BFA40EA05202080002040B292
:10226000B0BD00BF40F22000C2F2000081782170B2
:10227000C17861700179A1704179E1708179217132
:10228000C07960710020A071002040B2B0BD00BFD5
:102290004FF43850FFF7EAF900F07F014FF438505F
:1022A000FFF752FA4FF43850FFF7E0F940F08001A1
:1022B0004FF43850FFF748FA002040B2B0BD00BFDD
:1022C0004FF43850FFF7D2F9C0F3801100F0380016
:1022D0002170A0F13801A0F12002B1FA81F1B2FA27
:1022E00082F2490952091143A0F11002102A6170CB
:1022F0002CD8012140F2011301FA02F2C0F20103CD
:102300001A4208BF0021A0F10802182AA17023D8A0
:10231000012000FA02F10122C0F20112114208BFAD
:102320000020E070002040B2B0BD00BF2078BDE8C2
:10233000B04004F0FFBF00BF4FF43850FFF796F9EC
:1023400000F001002070002040B2B0BD0021A0F1DB
:102350000802182AA170DBD90020E070002040B2EA
:10236000B0BD000010B540F21024C2F2000404F128
:1023700008014FF470600422FFF718FA04F110010D
:102380004FF4A0600422FFF711FA04F10C014FF49E
:1023900080700422BDE81040FFF708BA80B5002025
:1023A0008021FFF7D1F90020FFF760F940F21020FB
:1023B000C2F2000000F12C014FF410600622BDE8CB
:1023C0008040FFF7F3B9000010B500208021FFF72F
:1023D000BBF90020FFF74AF940F21024C2F20004D2
:1023E00004F108014FF470600422FFF7DFF904F1F3
:1023F00010014FF4A0600422FFF7D8F904F10C019A
:102400004FF480700422FFF7D1F904F12C014FF44E
:1024100010600622BDE81040FFF7C8B910B50028CB
:1024200008BF10BD044600BF4FF47A70013C00F0B5
:1024300003F8002CF8D110BD002808BF704700BF7A
:10244000013800BF00BF00BF00BF00BF00BF00BF1A
:1024500000BF00BF00BF00BF00BF00BF00BF00BF84
:1024600000BF00BF00BF00BF00BF00BF00BF00BF74
:1024700000BF00BF00BF00BF00BF00BF00BF00BF64
:1024800000BF00BF00BF00BF00BF00BF00BF00BF54
:1024900000BF00BF00BF00BF00BF00BF00BF00BF44
:1024A00000BF00BF00BF00BF00BF00BF00BF00BF34
:1024B00000BF00BF00BF00BF00BF00BF00BF00BF24
:1024C00000BF00BF00BF00BF00BF00BF00BF00BF14
:1024D00000BF00BF00BF00BF00BF00BF00BF00BF04
:1024E00000BF00BF00BF00BF00BF00BF00BF00BFF4
:1024F00000BF00BF00BF7FF4A3AF70472DE9F043DA
:1025000081B0082804D9FF2040B201B0BDE8F083B3
:102510004701044607F10800FFF7A8F800F00F0094
:1025200001281FD107F5847528460821FFF70CF90B
:102530002846FFF79BF80028FAD140F2E018C2F2D3
:1025400000080120B8F80010B8F80220A0400842A6
:1025500022EA0001A8F802100AD0002040B201B01F
:10256000BDE8F083FB2040B201B0BDE8F08300BFBE
:102570006FEA000907F5427607F502773046FFF764
:1025800075F878B33846FFF771F80007F6D5284696
:102590001021FFF7D9F800BF2846FFF767F8002899
:1025A000FAD138461F21FFF7CFF8B8F80000B8F885
:1025B000021000EA0900A8F8000001EA0900A8F8E2
:1025C000020008EB44000021818108EB0400017146
:1025D0003046FFF74BF80028FAD1F32040B201B0A3
:1025E000BDE8F083012040B201B0BDE8F0830000F7
:1025F00040F20042C4F20202904203D1052901D305
:10260000FEE700BF01EB810100EB8100816841F032
:10261000010181607047000040F20042C4F20202F2
:10262000904203D1052901D3FEE700BF01EB8101F0
:1026300000EB8100816821F020018160704700007B
:1026400040F20042C4F20202904203D1052901D3B4
:10265000FEE700BF01EB810200EB82029368890074
:1026600023F00103936000239360D36013615361EF
:102670000F22436802FA01F11943416070470000DC
:1026800040F20043C4F20203984203D1052901D36A
:10269000FEE700BF80B5136801EB810100EB81000C
:1026A000036191684161118AC1608168536821F4B6
:1026B0007C5CD168D2F814E043EA0C03194341EA88
:1026C0000E018160117E8368012923F0400308BF59
:1026D00040338360517E8368012923F0800308BF63
:1026E00080338360917E8268002922F0100218BF37
:1026F0001032826080BD000040F20042C4F202024B
:10270000904203D1052901D3FEE700BF01EB81010F
:1027100000EB8100816821F48041816070470000F6
:1027200040F2084CC4F2010C5CF8083C012923EA91
:1027300000034CF8083C5CF8043C23EA00034CF826
:10274000043CDCF8003023EA0003CCF80030DCF86D
:10275000043023EA0003CCF8043019D021B95CF826
:10276000081C01434CF8081C022A18D0012A6FEA01
:10277000000119D0002A18BF7047DCF80020104370
:10278000CCF80000DCF804000840CCF804007047E6
:102790005CF8041C01434CF8041C022AE6D1DCF866
:1027A0000010014303E000BFDCF800201140CCF82A
:1027B0000010DCF804100843CCF804007047000057
:1027C00040F20041C4F201010A68104308607047FA
:1027D00040F21441C4F201010860704740F2102138
:1027E000C2F200010A7D02704A7D42708A7D8270C9
:1027F000C97DC1707047000040F21021C2F2000193
:102800000A7B02704A7B42708A7B8270C97BC170EE
:102810007047000040F21021C2F200010A7A0270F3
:102820004A7A42708A7A8270C97AC1707047000011
:1028300040F21021C2F200010A7C02704A7C427010
:102840008A7C8270C97CC170704700002DE9F04F0E
:1028500085B042F2086101EB4017390A019142F25A
:10286000087101EB401840F2200A4FEA1825C2F225
:10287000000A4FF0000B1CE0DAF820100020884717
:10288000DAF8201028468847DAF820105FFA88F036
:102890008847DAF81C0034028047DAF81810064638
:1028A0008847DAF81000804744EA060BD94500F063
:1028B000AD80DAF80C008047DAF814008047DAF8C7
:1028C000240078B1DAF8282062B100208DF80800E1
:1028D000019803218DF8090002A88DF80A7090472D
:1028E0000CE000BFDAF8201000208847DAF820104A
:1028F00001988847DAF82010F8B28847DAF81C0007
:102900008047DAF8181006468847DAF81000804742
:10291000DAF80C008047DAF814008047DAF824006F
:1029200070B1DAF828205AB100208DF80B000DF1B3
:102930000B0003218DF80C508DF80D8090470CE0B2
:10294000DAF8201000208847DAF820102846884757
:10295000DAF820105FFA88F08847DAF81C003402B1
:102960008047DAF8181006468847DAF810008047E2
:1029700054EA06099AD0DAF80C008047DAF8140015
:102980008047DAF8240078B1DAF8282062B1002014
:102990008DF80E00019803218DF80F000DF10E0047
:1029A0008DF8107090470BE0DAF82010002088476F
:1029B000DAF8201001988847DAF82010F8B2884732
:1029C000DAF81C008047DAF8181006468847DAF86B
:1029D00010008047DAF80C008047DAF814008047CE
:1029E000DAF8240000283FF447AFDAF82820002A5C
:1029F0003FF442AF00208DF811000DF111000321CA
:102A00008DF812508DF81380904742E71FFA8BF033
:102A100005B0BDE8F08F00002DE9F04F85B042F21F
:102A2000080141EA4017390A019142F2081101EB0D
:102A3000401840F2200A4FEA1825C2F2000A4FF06F
:102A4000000B1CE0DAF8201000208847DAF820108C
:102A500028468847DAF820105FFA88F08847DAF8C5
:102A60001C0034028047DAF8181006468847DAF866
:102A70001000804744EA060BD94500F0AD80DAF833
:102A80000C008047DAF814008047DAF8240078B1A7
:102A9000DAF8282062B100208DF80800019803219F
:102AA0008DF8090002A88DF80A7090470CE000BF6D
:102AB000DAF8201000208847DAF8201001988847BB
:102AC000DAF82010F8B28847DAF81C008047DAF804
:102AD000181006468847DAF810008047DAF80C002C
:102AE0008047DAF814008047DAF8240070B1DAF889
:102AF00028205AB100208DF80B000DF10B000321A6
:102B00008DF80C508DF80D8090470CE0DAF820100D
:102B100000208847DAF8201028468847DAF8201085
:102B20005FFA88F08847DAF81C0034028047DAF848
:102B3000181006468847DAF81000804754EA06095C
:102B40009AD0DAF80C008047DAF814008047DAF8F7
:102B5000240078B1DAF8282062B100208DF80E0048
:102B6000019803218DF80F000DF10E008DF8107003
:102B700090470BE0DAF8201000208847DAF82010A0
:102B800001988847DAF82010F8B28847DAF81C0074
:102B90008047DAF8181006468847DAF810008047B0
:102BA000DAF80C008047DAF814008047DAF82400DD
:102BB00000283FF447AFDAF82820002A3FF442AF5C
:102BC00000208DF811000DF1110003218DF8125035
:102BD0008DF81380904742E71FFA8BF005B0BDE8EF
:102BE000F08F000070B5CE0601F00F0C06D5042A58
:102BF00042D1C26B4CF0030C1A43C26300F11002C5
:102C0000282900F1140E3FD048291BD113F00104EC
:102C10005CD113F0020463D113F004046AD113F001
:102C2000080471D113F0100479D113F0200440F09E
:102C3000818013F0400440F0888013F0800540F05C
:102C40008F8024E1DC0740F08F809C0700F19580A5
:102C50005C0700F19B801C0700F1A180DC0600F1FD
:102C6000A7809C0600F1AD805C0600F1B3801C06D5
:102C700000F1B8800BE100BF4CEA020C00F1100239
:102C8000282900F1140EBFD113F0010440F0AC80EC
:102C900013F0020440F0B38013F0040440F0BA8053
:102CA00013F0080440F0C18013F0100440F0C88015
:102CB00013F0200440F0CF8013F0400440F0D680A1
:102CC00013F0800540F0DC80E1E000BF056804619E
:102CD00025F00F0545EA0C05056013F002049BD0B2
:102CE0000568046125F0F00545EA0C15056013F050
:102CF000040494D00568046125F4706545EA0C2548
:102D0000056013F008048DD00568046125F4704552
:102D100045EA0C35056013F010043FF486AF0568F2
:102D2000046125F4702545EA0C45056013F0200484
:102D30003FF47FAF0568046125F4700545EA0C5542
:102D4000056013F040043FF478AF0568046125F096
:102D5000706545EA0C65056013F0800500F097800A
:102D6000046805618EE000BF046824F00F0444EAA3
:102D70000C0404609C077FF56BAF046824F0F0043A
:102D800044EA0C1404605C077FF565AF046824F422
:102D9000706444EA0C2404601C077FF55FAF04688C
:102DA00024F4704444EA0C340460DC067FF559AF27
:102DB000046824F4702444EA0C4404609C067FF503
:102DC00053AF046824F4700444EA0C5404605C06B5
:102DD0007FF54DAF046824F0706444EA0C6404602D
:102DE0001C0654D504684DE00568446125F00F05C4
:102DF00045EA0C05056013F002043FF44DAF056889
:102E0000446125F0F00545EA0C15056013F0040453
:102E10003FF446AF0568446125F4706545EA0C252A
:102E2000056013F008043FF43FAF0568446125F4E2
:102E3000704545EA0C35056013F010043FF438AFD7
:102E40000568446125F4702545EA0C45056013F0DA
:102E500020043FF431AF0568446125F4700545EA6C
:102E60000C55056013F040043FF42AAF0568446137
:102E700025F0706545EA0C65056013F0800506D005
:102E80000468456124F0704444EA0C74046013F44F
:102E9000807413D113F4007422D113F4806431D1FF
:102EA00013F4006440D113F480544FD113F4005450
:102EB0005ED113F480447CD06CE000BF45682829C3
:102EC00025F00F0545EA0C0504D0482904D1164623
:102ED00001E000BF76463460456013F40074DCD036
:102EE0004568482925F0F00545EA0C1504D0282945
:102EF00004D1764601E000BF16463460456013F405
:102F00008064CDD04568482925F4706545EA0C25D4
:102F100004D0282904D1764601E000BF164634606B
:102F2000456013F40064BED04568482925F4704517
:102F300045EA0C3504D0282904D1764601E000BFCB
:102F400016463460456013F48054AFD04568482974
:102F500025F4702545EA0C4504D0282904D176468D
:102F600001E000BF16463460456013F40054A0D061
:102F70004568482925F4700545EA0C5504D02829F0
:102F800004D1764601E000BF16463460456013F474
:102F900080440ED04568482925F0706545EA0C65E7
:102FA00004D0282904D1764601E000BF16463460DB
:102FB000456013F4004308BF70BD4468482924F0FD
:102FC000704444EA0C7502D0282901D1724613607E
:102FD000456070BDB0B50422C4F20102134602F18F
:102FE000180E002848BF73461C6800F44013B3F560
:102FF000401F1FFA80FC07D1156824F0E06325F01C
:10300000E064146017E000BFC3020BD46FF00F033D
:1030100003EA50430CFA03F324EA030343F0E063AA
:1030200009E000BFC0F30343032505FA03F324EAD4
:10303000030343F0E0636FF00F0404EA50440029F7
:103040000CFA04F518BF2B43002848BF72461360E2
:10305000B0BD000080B5D0F8B8238121402303F033
:10306000A1F8002080BD0000B0B5D0F8B8530446E8
:1030700009A100202A46FDF793FC204601212A469B
:10308000402303F07BF8204681212A46402303F0A9
:1030900089F80020B0BD00BF2D2055534220726535
:1030A000637620646174613A202573202E2E2E0DE4
:1030B0000A00000010B58121044603F043F82046C1
:1030C000012103F03FF8002010BD000070B541F26F
:1030D000B825C2F20005044628464021FDF71FF935
:1030E00047F2E436C0F6000606F11B01204603F065
:1030F0006DF806F12201204603F068F82046012110
:103100002A46402303F03AF8D4F8BC03C4F8B85375
:1031100008B100688047002070BD000000290EBF84
:103120000220C0F8BC13002070470000D0F8B8138C
:103130006F2246F248530A71C6F66C4340220B6078
:10314000AFF3008080B513460A46812103F02AF8C8
:10315000002080BD4A78013A082A3CD8D0F8B8C38C
:10316000DFE802F00610103939183939060000BFBF
:1031700041F2F820C2F20000017801310170002014
:10318000704700BF4021C0F8D8C0C0F8E41000204C
:10319000704700BFCA78212A10D0222A1BD1C988C3
:1031A000212928BF2121C0F8E41047F22041C0F6B0
:1031B0000001C0F8D8100020704700BFC988092955
:1031C00028BF0921C0F8E41047F2E431C0F600013D
:1031D0001231C0F8D810002070470000704700007E
:1031E0008CB040F21C00C2F20000006844F6D351DB
:1031F000C1F26201A0FB01014FF0FF30002700EB9C
:103200009110B7EB106F8DF807700DD14EF21001D1
:10321000CEF2000148604EF62350CEF20000F022BC
:10322000027007208F60086040F610484FF4C060BD
:10323000C4F2010800F0E6FC40F2026000F0E2FC9B
:1032400040F2036000F0DEFC40F20020C0F23000EB
:1032500001214FF00109FFF7BDFE40F60004C4F262
:10326000000404F580301021032248F2FE734FF071
:10327000030AFFF7B7FCA8F11005284648210322EE
:1032800044F23E43FFF7AEFC2846102103224FF4E0
:103290003843FFF7A7FC2846182103228023FFF7B5
:1032A000A1FC4FF60040CFF6FF704FF4004548F800
:1032B000005040F61440C4F201004FF4006606606E
:1032C0000A20FFF7ABF84FF48050C8F80060C8F848
:1032D00000004FF40050C8F800004FF4E060C8F858
:1032E000005000F08FFC40F2027000F08BFC204692
:1032F00002F078F8FE2005AE079020463146CDF862
:1033000014A0ADF81870ADF820708DF8227002F09E
:1033100023F902AD204601212A46ADF80890CDF8E8
:103320000A70CDF80E70ADF8127001F0EFFE204675
:103330000121002202F030F820460121602202F033
:103340000BF820460121002202F02CF82046012132
:1033500002F064F9204601F0C3FE204602F0F6F8C0
:103360004FF0804002F03EF840F252700590072086
:1033700007904FF080403146ADF81870ADF82070DE
:103380008DF8227002F0E8F84FF0804002212A46C2
:10339000ADF80890CDF80A70CDF80E70ADF8127047
:1033A00001F0B4FE4FF080400221002201F0F4FF52
:1033B0004FF080400221602201F0CEFF4FF08040AC
:1033C0000221082201F0EEFF4FF08040082101F0B9
:1033D0008DFE4FF080404FF4924102F0B3F84FF071
:1033E0008040012102F01AF94FF0804001F078FE90
:1033F0004FF0804002F0AAF84FF4A06000F002FC09
:103400000025C4F2020528460021FFF719F947F20A
:103410004550C0F60000CDE907074DF27020099035
:1034200004F1380005904FF48070ADF82C00069040
:103430004FF440500A9005AA284600218DF82E909E
:10344000FFF71EF928460021FFF7E6F8284600217D
:10345000FFF752F928460021FFF7CAF844F2B67187
:10346000C0F601010020FDF79BFA002000F04CFBA4
:103470004DF2FF71C0F2B85140F298158842C2F285
:1034800000050DDC46F60041C0F2DC21884217D071
:103490004AF20021C0F24A41884218D1002015E0CA
:1034A0004DF60001C0F2B85188420DD040F60061DF
:1034B000C0F2277188420AD14FF4000006E000BF35
:1034C0004FF4800002E000BF4FF4400028602868FD
:1034D00000F0C8FB40F20C5000F094FB40F6F4649E
:1034E000C2F2000440F24C01C2F200012046FFF794
:1034F00015FE40F2700240F20413C2F20002C2F262
:1035000000032046012102F027FF4320032100226F
:10351000002600F051F940F21C7000F073FB4FF4EC
:103520008020FFF755F94FF4802000210022FFF79B
:10353000F7F84FF48020FFF743F92A2000210022FA
:1035400000F03AF94FF48050C8F8000041F24D60A5
:1035500041F2DD41C0F60000C0F6000100F0D2FCEF
:1035600041F2010041F28101C0F60000C0F6000105
:1035700000F0E4FC4FF00230CDE90700CDE9050092
:1035800005A90120FEF7DAFD013006D144F600015D
:10359000C0F601010020FDF703FA41F2311141F2BA
:1035A000C54241F21143281DC0F60001C0F60002D9
:1035B000C0F60003FDF734FF46F6612946F69D2A62
:1035C0000DF107045AA5C0F60009C0F6000A0FF273
:1035D000801B00274FF0000803E000BFFDF7A4F8B0
:1035E00000270F202146FEF7A9FD013004D09DF8E9
:1035F000070048B9F2E700BF00202946FDF7D0F9DF
:103600009DF807000028E9D00128EAD1F8B2012886
:103610000ED1FCF77DFF08B3042825D001284FF018
:103620000107DED10A2E4FF00007DAD8013678E024
:10363000FDF77AF840F2F3610120C2F200010127A0
:10364000FCF706FF48464946524600F03DFC002084
:1036500059460026FDF7A4F9C3E700BF002041A1A9
:10366000FDF79EF90127BCE75FFA88F0022823D016
:10367000012833D000284FF00107B2D100200121EA
:103680005022002301F054FC074644F63401002088
:10369000C0F601013A46FDF783F9B7FA87F04FEA21
:1036A000501817F1060F4FF000074FF47A70C8BF9B
:1036B0000127FEF7B3FE94E7002034A1082200F0B2
:1036C0005FFC0746002034A13A46FDF769F9B7F1DF
:1036D000FF3F21DD4FF0020823E000BF4AF6C000A3
:1036E000C4F20100CDF8030000200DF1030141F602
:1036F0009072FEF70DFC02460138B0FA80F044F6F5
:10370000490147090020C0F60101FDF749F94FEAD8
:103710004708012765E700BF00204FF00008FEF7CB
:10372000EDFE4FF47A70FEF779FE012759E700BFEE
:10373000202D20556E6B6E6F7720504859204C69B4
:103740006E6B207374617475732E2E2E0D0A00003B
:10375000202D2044484350207374617274202E2E13
:103760002E0D0A00202D20444843502054696D65D9
:103770006F7574206F6363757272656420616E6427
:103780002072657472790D0A000000007B22696462
:10379000223A317D00000000202D20536F636B65BD
:1037A000742053656E64204D657373206572723AA0
:1037B0002025640D0A0000004EF60C5CCEF2000CD1
:1037C000DCF8003003F4E063A3F54073B3F5A06FB9
:1037D00002D21B0A07E000BF40F20053C0F2FA53C6
:1037E000CCF80030022301FA03FCC3F104030F21DB
:1037F000D94011404EF2001241EA0C01CEF2000213
:10380000090140EA020383F8001300F01F010123BD
:1038100003FA01F11C2303EAD00081507047000035
:103820004FF68072C1F6FF72114008434EF6085100
:10383000CEF200010860BFF34F8F70472DE9F047CB
:1038400084B040F21024C2F20004A078FEF7FEFF1C
:10385000002859D00246A078E16902AF0DF10A03B1
:10386000009700F009FABDF80810432970D1E26909
:1038700094F82C30117F99426AD1517F94F82D3001
:10388000994265D1917F94F82E30994260D1D17FD1
:1038900094F82F3099425BD192F8201094F8303090
:1038A000994255D192F8211094F8313099424FD174
:1038B00094F8247094F8253094F8266094F8271032
:1038C000002F08BF002B25D09DF80A509DF80B80D3
:1038D0009DF80CE09DF80DC0BD4208BF98451DD075
:1038E00094F828108D424FF000010ED194F8293041
:1038F00098450AD194F82A309E4506D194F82B3089
:103900009C450FD001E000BF002148B204B0BDE8E3
:10391000F08700BF002ED7D121B1D5E7B645DFD162
:103920008C45DDD181B2F12912D39DF80AC09DF8F2
:103930000BE09DF80C909DF80DA040F2000812FAE3
:1039400080F002F1F0050021C2F200081DE000BF86
:10395000002148B204B0BDE8F08700BFAA7884F81F
:103960002420EA7884F825202A7984F826206A79A8
:10397000063584F8272084F828C084F829E084F8E4
:103980002A9084F82BA08542BFD22F78362F00F2E0
:103990005D80DFE807F01F215E2B5E5E395E5E5EB4
:1039A0005E5E5E5E5E5E5E5E5E5E5E5E5E5E5E5E37
:1039B0005E5E5E5E5E5E5E5E5E5E5E5E5E5E5E5E27
:1039C0005E5E5E5E5E5E5E5E5E475E571D0000BFD1
:1039D000C4E700BF0135D6E7AE782674EE7866748A
:1039E0002E79A6746E790635E674CCE715F8026F69
:1039F00015F8017C26736E786673AE78A673EE7840
:103A00003D44E673BFE700BF15F8026F15F8017C6F
:103A100026756E786675AE78A675EE783D44E675C7
:103A2000B1E700BFAE782F79C8F80060EB783604B4
:103A30006A7946EA03233B4442EA03220635C8F882
:103A40000020A0E7A97803359DE700BFFF2F3FF4D2
:103A50005CAF6A782A44951C95E7000047F20003A2
:103A6000C4F200031A6822F003021A60D3F800C0FF
:103A70004EF2100240EA0C00CEF200021860D2F8BA
:103A8000000D40F00400C2F8000D136840F2C810A9
:103A9000C2F200000360D2F8F0304360D2F8F43094
:103AA0008360D2F8F830C360D2F800C040F204035B
:103AB000C0F2010303EA0C0313604FF63D03CFF697
:103AC0007F73C2F870316FF4E063C2F874314FF065
:103AD000FF33C2F8783119B140BF20BF20BF00E0EA
:103AE00030BF016811604168C2F8F0108168C2F807
:103AF000F410C068C2F8F800D2F8000D20F00400FD
:103B0000C2F8000D7047000010B541F20402C4F283
:103B10000202116801F00C01082941F20021C0F2F3
:103B20007A013FD11368DB0304D440F6001CC0F2D5
:103B30003D0C21E0936AD2F828C05B0046F60043B2
:103B4000C0F2DC2358BF0B465FEACC310ED5916A38
:103B5000C1F3031C916A0CF1010CC1F30321B3FB07
:103B6000FCF30231112908BF14214B43916A01F083
:103B70000F010131B3FBF1FC13681168C3F3834EED
:103B8000102303EA5161714401230F2938BF022336
:103B90000B440F2B11BF03FB0CF10CEB4C01490044
:103BA00001EB5C011368D2F800C0D2F800E00328F2
:103BB00010D8C3F303120FA39A5C47F2CA3321FA59
:103BC00002F2C0F60003DFE800F01203070D00BFA9
:103BD000104610BD002010BDCCF30220185C22FA64
:103BE00000F010BDCEF3C220185C22FA00F10846A6
:103BF00010BD00BF0000000000000000010203042F
:103C00000607080941F2000300F01F018009C4F211
:103C100002034FF0010CC2580CFA01F11143C150DC
:103C20007047000041F2000300F01F018009C4F258
:103C300002034FF0010CC2580CFA01F122EA010113
:103C4000C150704741F2000300F01F018009C4F227
:103C500002034FF0010CC2580CFA01F11143C1509C
:103C60007047000041F20401C4F202010A6822F424
:103C700040021043086070472DE9F04F85B00828D6
:103C800006D94FF0FF35284605B0BDE8F08F00BFDC
:103C90004FEA401B04460BF10800994692460E4637
:103CA000FDF7E4FC074600F00F000238022845D873
:103CB000BAF1000F48D040F2E010C2F2000000EB71
:103CC0004408B8F80C00002844D0002507F007008D
:103CD000042800F09C8003285ED0022840F08280F7
:103CE000B8F80C00002840F0C58037460E9E03A9A6
:103CF0002046082202F0E2FE0BF58475284640219A
:103D0000FDF722FD2846FDF7B1FC0028FAD1039803
:103D1000BDF81010C9F8000008BABDF81210000C68
:103D2000308008BA40F2E011C2F20001000C2144D8
:103D300080223E46A8F80C000A719BE06FF0040553
:103D4000284605B0BDE8F08F6FF00D05284605B098
:103D5000BDE8F08F0120CDE901680BF5427600FA4D
:103D600004F801E0002D4BD12046FEF76FFD05461B
:103D70003046FDF77BFC00283CD040F2E010C2F258
:103D80000000008818EA000FECD0002DEAD10025D1
:103D9000284605B0BDE8F08FB8F80C00002869D1BE
:103DA00003A92046062202F089FE0BF584752846F9
:103DB0004021FDF7C9FC00BF2846FDF757FC00284D
:103DC000FAD10398BDF81010C9F8000008BA40F203
:103DD000E011C2F20001000C21448022A8F80C007E
:103DE0000A7147E02046294602F05EFFA8F80C5011
:103DF00049E000BF6FF00305284605B0BDE8F08F2D
:103E0000DDE9016807F0070004287FF464AFB8F823
:103E10000C0070BB03A92046022202F04FFE0BF5F6
:103E2000847528464021FDF78FFC00BF2846FDF72A
:103E30001DFC0028FAD1BDF80C006FF0010100BA9A
:103E400001EB104081B240F2EB529142A8F80C0015
:103E500008D32046FEF722F86FF47A75284605B09D
:103E6000BDE8F08F40F2E011C2F20001214480224F
:103E70000A7180B2504538BF8246204631465246CC
:103E800002F01CFE55460BF5847630464021FDF7C6
:103E90005BFC00BF3046FDF7E9FB0028FAD1B8F81B
:103EA0000C00401BA8F80C0040F2E010C2F2000029
:103EB00020440EBF0021017941F001010171284623
:103EC00005B0BDE8F08F000010B540F2000342F2EB
:103ED000653C42F2C93E42F29D34C2F20003C0F694
:103EE000000CC0F6000EC0F600040028C3E902CEA4
:103EF0001C6118BF9860002918BFD960002A18BF3C
:103F00001A6110BD0028024618BF012200290B4685
:103F100018BF01231A4047F2C102C0F6000218BFC1
:103F2000024647F2BD00C0F6000018BF084640F246
:103F30002001C2F20001C1E90520704740F2200CC7
:103F4000C2F2000CBCF800309B0501D4FEE700BFB4
:103F5000002803460A4618BF0123002918BF012282
:103F60001A4047F23D22C0F6000218BF024647F24F
:103F70004120C0F6000018BF0846CCE90720704772
:103F80002DE9F04F81B0082806D94FF0FF342046C4
:103F900001B0BDE8F08F00BF4FEA4019054609F1B6
:103FA000080014468846FDF761FB00F00F00012869
:103FB00024D14CB309F542773846FDF757FB1C284E
:103FC00001D0172826D140F2E01AC2F2000ABAF84E
:103FD0000200012101FA05FB1BEA000F2AD009F5B6
:103FE00002763046FDF742FBC10619D400075BD4C8
:103FF0000024204601B0BDE8F08F00BF6FF004043C
:10400000204601B0BDE8F08F6FF00D04204601B0EE
:10401000BDE8F08F6FF00604204601B0BDE8F08FD8
:1040200030461021FDF790FBBAF8020020EA0B00A1
:10403000AAF8020041F608704844FDF717FB800219
:1040400080B2A04238BF04462846FEF7E5FC06468B
:104050003846FDF70BFB172801D01C282ED1BAF8E3
:1040600000001BEA000F18BFB442C1D8B442EBD81D
:1040700028464146224602F0D1FE09F584752846BD
:104080002021FDF761FB00BF2846FDF7EFFA00286D
:10409000FAD1BAF8020040EA0B00AAF80200204662
:1040A00001B0BDE8F08F00BF2846FDF7F7FE6FF0C6
:1040B0000C04204601B0BDE8F08F00BF2846FDF794
:1040C000EDFE6FF00604204601B0BDE8F08F000061
:1040D000B0B584B00DF10A014FF410600622FDF76F
:1040E000F7FA40F21024C2F20004D4E9070140F2CA
:1040F0000112C0F2060202600A0E02710A0C42713D
:104100000A0AC17100258021827105818172C576FC
:10411000C0F81750C0F81350C0F80F50C0F80B503B
:1041200094F82C10017794F82D10417794F82E1004
:10413000817794F82F10C17794F8301080F8201010
:1041400094F8311080F8211022304A21FCF7C5F88C
:104150008B2040F20B1100BFE269024402F81F5CA1
:10416000E269024402F81E5CE269024402F81D5C46
:10417000E269024402F81C5CE269024402F81B5C3A
:10418000E269024402F81A5CE269024402F8195C2E
:10419000E269024402F8185CE269024402F8175C22
:1041A000E269024402F8165CE269024402F8155C16
:1041B000E269024402F8145CE269024402F8135C0A
:1041C000E269024402F8125CE269024402F8115CFE
:1041D000E269024402F8105CE269024402F80F5CF2
:1041E000E269024402F80E5CE269024402F80D5CE6
:1041F000E269024402F80C5CE269024402F80B5CDA
:10420000E269024402F80A5CE269024402F8095CCD
:10421000E269024402F8085CE269024402F8075CC1
:10422000E269024402F8065CE269024402F8055CB5
:10423000E269024402F8045CE269024402F8035CA9
:10424000E269024402F8025CE269024402F8015C9D
:10425000E2691554203088427FF47EAFE16948F26C
:104260006320C6F2533040F23512C1F8EC00002052
:10427000C3F604524881C1F8F02040F20712A1F8B9
:10428000F42094F82C2094F8315081F8F620D4F8DA
:104290002D2094F82430C1F8F72040F23242A1F8E2
:1042A000FC20628981F8FB502589A1F8002140F2A9
:1042B0003642A1F8022194F82620A1F8FE5094F885
:1042C000255081F8043194F8273081F80621FF2227
:1042D00081F8055181F8073181F808214FF4867182
:1042E000E269B1F5097F0A4402F8030CE2690A4465
:1042F00002F8020CE2690A4402F8010C04D0E269F7
:1043000050540431ECE700BF4FF0FF32A078E16970
:104310000192432501AB4FF40972009500F08CFC2B
:1043200004B0B0BD2DE9F04184B00DF10A014FF4A5
:1043300010600622FDF7CCF940F21024C2F200040E
:10434000D4E9070140F20112C0F2060202600A0E2F
:1043500002710A0C42710A0AC17100258021827122
:1043600005818172C576C0F81750C0F81350C0F8A7
:104370000F50C0F80B5094F82C10017794F82D10C2
:10438000417794F82E10817794F82F10C17794F824
:10439000301080F8201094F8311080F8211022306D
:1043A0004A21FBF79AFF8B2040F20B11E26902448D
:1043B00002F81F5CE269024402F81E5CE2690244F2
:1043C00002F81D5CE269024402F81C5CE2690244E6
:1043D00002F81B5CE269024402F81A5CE2690244DA
:1043E00002F8195CE269024402F8185CE2690244CE
:1043F00002F8175CE269024402F8165CE2690244C2
:1044000002F8155CE269024402F8145CE2690244B5
:1044100002F8135CE269024402F8125CE2690244A9
:1044200002F8115CE269024402F8105CE26902449D
:1044300002F80F5CE269024402F80E5CE269024491
:1044400002F80D5CE269024402F80C5CE269024485
:1044500002F80B5CE269024402F80A5CE269024479
:1044600002F8095CE269024402F8085CE26902446D
:1044700002F8075CE269024402F8065CE269024461
:1044800002F8055CE269024402F8045CE269024455
:1044900002F8035CE269024402F8025CE269024449
:1044A00002F8015CE2691554203088427FF47EAF47
:1044B000E06948F26321C6F25331C0F8EC100021E4
:1044C000C4E9091140F23511C3F60151C0F8F010EA
:1044D00040F20711A0F8F41094F82C1040F21403E5
:1044E000C2F2000380F8F610218E1E78B4F82D2059
:1044F00094F82FE0A0F8FA100C214FF0060CA0F869
:10450000F72080F8F9E0A0F8FC10DEB300271221B4
:10451000E06947F0010210FA81F080F8EC6095B292
:104520005E5D41F001000EB3E26912FA80F047F0DF
:10453000020280F8EC6095B25E5D881CB6B1E2695B
:1045400012FA80F047F0030280F8EC6095B25E5DED
:10455000C81C5EB1E269043712FA80F080F8EC60A2
:10456000BDB25E5D0431002ED2D101E01746014696
:1045700094F82FE0E0696FF00602BB1DA2EB05087E
:1045800004E000BF6FF0060812210623372505EB73
:104590001E1710FA81F04FEA1E16BEF1A00F38BFA9
:1045A00006F1300780F8EC7094F82F00E26900F013
:1045B0000F004F1C00F137060A2838BF00F1300603
:1045C00012FA87F080F8EC6094F830008A1C070932
:1045D00005EB1016A028E06938BF07F1300610FA85
:1045E00082F080F8EC6094F83000E66900F00F008B
:1045F000CA1C00F137070A2838BF00F1300716FA45
:1046000082F080F8EC7094F831000A1D070905EB80
:104610001016A028E06938BF07F1300610FA82F0C2
:1046200080F8EC6094F831004A1D00F00F0000F1B2
:1046300037070A2838BF00F13007E0698E1D10FAED
:1046400082F080F8EC70E06918FA86F2104480F885
:10465000EC30E069CA1D10FA86F080F8EC50E06991
:1046600001F1080310FA82F080F8ECC0E06901F172
:10467000090210FA83F0012380F8EC30E06901F1BF
:104680000A0310FA82F0032280F8EC20E06901F1BD
:104690000B0210FA83F080F8ECC0E06901F10C0322
:1046A00010FA82F00F2280F8EC20E06901F10D028F
:1046B00010FA83F03A2380F8EC30E06901F10E0340
:1046C00010FA82F03B2280F8EC2001F10F00E26941
:1046D00081B2C90812FA83F2FF23262982F8EC304E
:1046E0002CD8EF2111FA80F0002100BFE269A0F17F
:1046F000EE039BB20244B3F59C7F02F8031C1DD06D
:10470000E269A0F1ED039BB20244B3F59C7F02F88D
:10471000021C13D0E269A0F1EC039BB20244B3F592
:104720009C7F02F8011C09D0E2691154A0F1EB0250
:1047300092B2B2F59C7F00F10400D7D14FF0FF3266
:10474000A078E1690192432701AB4FF40972009709
:1047500000F072FA04B0BDE8F0810000B0B584B09A
:104760000DF10A014FF410600622FCF7B1FF40F290
:104770001024C2F20004D4E9070140F20112C0F291
:10478000060202600A0E02710A0C42710A0AC17125
:1047900000258021827105818172C576C0F817508D
:1047A000C0F81350C0F80F50C0F80B5094F82C10FC
:1047B000017794F82D10417794F82E10817794F8B2
:1047C0002F10C17794F8301080F8201094F8311031
:1047D00080F8211022304A21FBF77FFD8B2040F228
:1047E0000B1100BFE269024402F81F5CE269024457
:1047F00002F81E5CE269024402F81D5CE2690244B0
:1048000002F81C5CE269024402F81B5CE2690244A3
:1048100002F81A5CE269024402F8195CE269024497
:1048200002F8185CE269024402F8175CE26902448B
:1048300002F8165CE269024402F8155CE26902447F
:1048400002F8145CE269024402F8135CE269024473
:1048500002F8125CE269024402F8115CE269024467
:1048600002F8105CE269024402F80F5CE26902445B
:1048700002F80E5CE269024402F80D5CE26902444F
:1048800002F80C5CE269024402F80B5CE269024443
:1048900002F80A5CE269024402F8095CE269024437
:1048A00002F8085CE269024402F8075CE26902442B
:1048B00002F8065CE269024402F8055CE26902441F
:1048C00002F8045CE269024402F8035CE269024413
:1048D00002F8025CE269024402F8015CE2691554E4
:1048E000203088427FF47EAF2178E06948F263226D
:1048F0000339C6F253320129C0F8EC2010D8002148
:104900004181218962898181C28194F8245094F87F
:10491000252094F8263094F827108DF8065004E0EE
:10492000FF22FF23FF218DF806208DF8072040F29B
:104930003512C3F60352C0F8F02040F20712A0F877
:10494000F42094F82C208DF80830D4F82D3080F81D
:10495000F62094F83120FF298DF80910C0F8F730BF
:1049600080F8FB2018D1A26840F23241C0F8FE2046
:1049700094F82420A0F8FC1040F23641A0F802116F
:1049800080F80421B4F8251094F827201C25A0F8FD
:10499000051180F8072100E0102528440C2180F83B
:1049A000EC10E06945F0010108444FF0000E40F2C0
:1049B000140C80F8ECE0C2F2000C9CF8003045F0DA
:1049C0000205A3B34FF0020EE06910FA85F080F8FB
:1049D000EC300CEB0E0313F8012C45F00100FAB19A
:1049E000E16911FA80F080F8EC201CF80E20A81C78
:1049F000E2B1E16911FA80F080F8EC205A78E81C05
:104A000092B1E169043511FA80F080F8EC209B78CE
:104A10000EF1040E002BD7D1AEF1020E07E000BF5D
:104A2000AEF1010E02E000BF0EF1010E054694F852
:104A30002F004FF0370C01090CEB1013A028E06990
:104A400038BF01F1300310FA85F080F8EC3094F8AB
:104A50002F00E26900F00F00691C00F137030A28FB
:104A600038BF00F1300312FA81F080F8EC3094F88E
:104A70003000A91C02090CEB1013A028E06938BF14
:104A800002F1300310FA81F080F8EC3094F8300035
:104A9000E36900F00F00E91C00F137020A2838BF73
:104AA00000F1300213FA81F080F8EC2094F8310024
:104AB000291D02090CEB1013A028E06938BF02F190
:104AC000300310FA81F080F8EC3094F83100691D61
:104AD00000F00F0000F137020A2838BF00F1300261
:104AE000E069AB1D10FA81F080F8EC20E1699AB220
:104AF000A2EB0E020EF10600114481F8E500E06918
:104B0000E91D10FA83F080F8ECC0E06905F10802B5
:104B100010FA81F0082180F8EC10E06905F1090134
:104B200010FA82F0012280F8EC20E06905F10A0217
:104B300010FA81F0032180F8EC10E06905F10B0117
:104B400010FA82F0062280F8EC20E06905F10C02F0
:104B500010FA81F00F2180F8EC10E06905F10D01E9
:104B600010FA82F03A2280F8EC20E06905F10E029A
:104B700010FA81F03B2180F8EC10E06905F10F019B
:104B800010FA82F01F2280F8EC20E06905F1100293
:104B900010FA81F0212180F8EC1005F11101E36990
:104BA00088B2C50813FA82F2FF23262D82F8EC3072
:104BB00036D8494211F0030218D0E16900230144BC
:104BC00081F8EC30012A00F1010110D0E569022AD8
:104BD000294481F8EC3000F1020108D0E269114467
:104BE000002281F8EC20C11C01E000BF0146A0F2C8
:104BF0003510032814D30020E2690A4482F8EC003F
:104C0000E2690A4482F8ED00E2690A4482F8EE00A3
:104C1000E2690A440431B1F59C7F82F8EF00EBD1E0
:104C2000A078E16943250DF106034FF40972009560
:104C300000F002F804B0B0BD2DE9F04F81B00828B3
:104C400006D94FF0FF34204601B0BDE8F08F00BF19
:104C50004FEA401909F10807054638461E46144632
:104C60008846FCF703FD00F00F000238022811D837
:104C7000002C00F08380306800BA88B93846FCF711
:104C8000F5FC40070CD46FF00B04204601B0BDE8E2
:104C9000F08F00BF6FF00404204601B0BDE8F08F34
:104CA000DDF828A0BAF1000F0AD13846FCF7DEFC87
:104CB000400705D46FF00A04204601B0BDE8F08F2C
:104CC00009F5427B5846FCF7D1FC222818BF422840
:104CD0005AD109F6084031460422FCF767FD41F23B
:104CE000080048444FEA1A21FCF72EFD41F2081053
:104CF00048445FFA8AF1FCF727FD41F60870484402
:104D0000FCF7B4FC800280B2A04238BF0446012008
:104D100040F2E01A00FA05F7C2F2000A2846FDF751
:104D20007BFE06465846FCF7A1FCA8B3BAF8000083
:104D3000074218BFB44235D8B442EFD8284641469E
:104D4000224602F06BF809F5847528462021FCF70D
:104D5000FBFC00BF2846FCF789FC0028FAD109F5C6
:104D6000027500BF2846FCF781FCC10620D400076D
:104D7000F8D56FF00C0408211BE000BF6FF00D04A4
:104D8000204601B0BDE8F08F3228A2D06FF00604B3
:104D9000204601B0BDE8F08F6FF00304204601B05B
:104DA000BDE8F08F0024204601B0BDE8F08F00BFC1
:104DB00010212846FCF7C8FC204601B0BDE8F08F62
:104DC000B0B50178062909D142F20011C4F20201FE
:104DD0000968002918BFC0F80210B0BD4FF2E87191
:104DE000C1F6FF710A688B68D21808BFB0BD4FF0DA
:104DF000370C0CEB127349684FEA127EB2F1204F68
:104E000038BF0EF13003837013014FF0000E0CEB2E
:104E1000137580F803E0C2F30364B3F1204F38BF89
:104E200004F13005130205710CEB137580F805E0F1
:104E3000C2F30354B3F1204F38BF04F1300513031C
:104E400085710CEB137580F807E0C2F30344B3F1EE
:104E5000204F38BF04F13005130405720CEB1375B5
:104E600080F809E0C2F30334B3F1204F38BF04F1F6
:104E70003005130585720CEB137580F80BE0C2F357
:104E80000324B3F1204F38BF04F130051306057336
:104E9000C2F303140CEB1375B3F1204F4FEA027306
:104EA00002F00F0280F80DE038BF04F1300502F186
:104EB0003704857380F80FE0B3F1204F38BF02F15B
:104EC00030040A0F0CEB1173047480F811E0B1F197
:104ED000204F38BF02F130030A010CEB12748374C7
:104EE00080F813E0C1F30363B2F1204F38BF03F140
:104EF00030040A020475C1F303530CEB1274B2F1CF
:104F0000204F4FEA013280F815E038BF03F130043A
:104F10000CEB1273847580F817E0C1F30341B2F112
:104F2000204F38BF01F13003037680F819E0B0BD9F
:104F30002DE9F04F85B0082802D9FF24B7E000BF63
:104F40000446881E994690460E46032854D25FEACE
:104F5000497000F1BF80B9F1000F08D0022E00F0B7
:104F6000AB80012E03D119F0210F00F0B3804FF474
:104F7000847000EB4417384610214FEA441BFCF7BD
:104F8000E3FB00BF3846FCF771FB0028FAD10BF5B4
:104F900002701F21FCF7D8FB0120A04040F2E01A6C
:104FA000C2F2000AC243BAF800100392BAF8022013
:104FB000814322EA0000AAF80010AAF802000AEBD6
:104FC00044010020029188810AEB04010BF542752F
:104FD000019108712846FCF749FB0028FAD109F035
:104FE000F0014BF008003143FCF7AEFBB8F1000FC5
:104FF00018D04FEA18212CE0012E0DD104A94FF44E
:1050000070600422FCF764FB049800289FD1FD2403
:1050100060B205B0BDE8F08FFB2460B205B0BDE81A
:10502000F08F00BF40F20210C2F20000B0F8008022
:105030004FF6F07608F1010293B24FEA1821B3421D
:1050400004BF4CF20002CFF6FF72028008BF6FF07F
:1050500010080BF58160FCF777FB0BF5A1605FFA98
:1050600088F1FCF771FB38460121FCF76DFB00BFAE
:105070003846FCF7FBFA0028FAD1BAF80000039A88
:1050800009F001011040A1400843BAF80210AAF843
:10509000000001EA02000299AAF8020000208881BB
:1050A000019908712846FCF7E1FA0028FAD060B2AD
:1050B00005B0BDE8F08F00BF4FFA89F0002802D498
:1050C00019F0200106D100283FF551AF19F010006A
:1050D0003FF44DAFFA2460B205B0BDE8F08F000098
:1050E000016841F0800101607047000041B108296A
:1050F00018BF7047416841F008014160704700BF28
:10510000416821F00801416070470000032988BF11
:10511000704710B5DFE801F0024892DA016A21F029
:10512000010101621188036A19430162016A21F0D9
:10513000020101629188036A194343F20043C4F2F9
:1051400001039842016206D042F60041C4F2010117
:10515000884240F0F180016A6FF0030421F00401FD
:1051600001625188036A19430162016A21F0080152
:105170000162D188036A19430162014651F8043F74
:1051800023F480730B60B2F808C00B6843EA0C0389
:105190000B600B6823F400730B60B2F80AE0D1F8DF
:1051A00000C01823BEE000BF016A21F010010162B7
:1051B0001188036A43EA01110162016A21F02001AA
:1051C00001629188036A43EA011143F20043C4F289
:1051D00001039842016206D042F60041C4F2010187
:1051E000884240F0AD80016A6FF4407421F04001C4
:1051F00001625188036A43EA01110162016A21F0E8
:1052000080010162D188036A43EA0111016201460B
:1052100051F8043F23F480630B60B2F808C00B68B8
:1052200043EA8C030B600B6823F400630B60528924
:10523000D1F800E04FEA820C182373E0016A21F4F0
:10524000807101621188036A43EA01210162016AE7
:1052500021F4007101629188036A43EA012143F25B
:105260000043C4F201039842016205D042F60041B6
:10527000C4F20101884267D1016A6FF0030421F48E
:10528000806101625188036A43EA01210162016A77
:1052900021F400610162D188036A43EA01210162BD
:1052A000014651F8043F23F480530B60B2F808C064
:1052B0000B6843EA0C130B600B6823F400530B607C
:1052C0005289D1F800E04FEA021C2AE0016A21F479
:1052D000805101621188036A43EA01310162016A67
:1052E00021F4005101629188036A43EA013143F2DB
:1052F0000043C4F201039842016205D042F6004126
:10530000C4F20101884223D1014651F8043F6FF4F1
:10531000407423F480430B601289D1F800E04FEA17
:10532000821C1C234CEA0E020A60195821401950B5
:10533000BDE81040704700BF6FF003041823F4E786
:105340006FF440741823F0E76FF003041C23ECE7BC
:105350006FF440741C23E8E7032988BF7047DFE837
:1053600001F00311070D00BF50F8181F02E000BF45
:1053700050F81C1F21F0700109E000BF50F81C1FFD
:1053800002E000BF50F8181F21F4E0411202016052
:10539000016811430160704703299CBF00EB810045
:1053A00042637047032988BF7047DFE801F00311AB
:1053B000070D00BF50F8181F02E000BF50F81C1F77
:1053C00021F0080109E000BF50F81C1F02E000BFF7
:1053D00050F8181F21F400611202016001681143A6
:1053E0000160704710B541F6FF31C4F200018842F8
:1053F0001CDC40F6FF31C4F20001884232DD41F28C
:10540000FF31C4F20001884254DC40F60041C4F28E
:10541000000188426ED041F20001C4F200018842CE
:1054200040F08E8040F2044482E000BF43F2FF313E
:10543000C4F20101884227DD44F6FF71C4F2010184
:10544000884247DC43F20041C4F20101884255D052
:1054500044F60041C4F20101884271D140F2133494
:1054600066E000BFB0F1804F4CD040F20041C4F282
:10547000000188424AD040F60001C4F2000188428F
:105480005ED140F2024453E041F60041C4F2000113
:1054900088423FD042F20001C4F2000188423DD070
:1054A00042F60041C4F20101884249D140F20B3476
:1054B0003EE000BF41F20041C4F20001884231D019
:1054C00041F60001C4F20001884239D140F206449D
:1054D0002EE000BF45F20001C4F20101884225D050
:1054E00045F20041C4F20101884218BF10BD40F2EC
:1054F00015341DE040F203441AE000BF40F20D34C1
:1055000016E000BF4FF4806412E000BF40F2014497
:105510000EE000BF40F207440AE000BF4FF4816490
:1055200006E000BF40F2054402E000BF4FF44574BE
:105530002046FEF787FB2046BDE81040FEF772BB11
:1055400010BD0000C2681143C1607047016841F09E
:10555000010101607047000080B50A8843F2004CE9
:10556000826240F6FF32C4F200029042C4F2010CA3
:1055700010DCB0F1804F1BD040F20043C4F20003B6
:10558000984215D040F60003C4F2000398420FD0B1
:105590001EE000BF40F60043C4F20003984207D06B
:1055A000604505D042F60043C4F2010398420FD192
:1055B000036823F0700303604B88026803F0600304
:1055C0001A4302608A88036802F010021A430260DC
:1055D00041F20002D1F808E020F48063C4F2000236
:1055E0009342C0F82CE009D0026822F440720260B5
:1055F0008A89036802F440721A430260604505D04C
:1056000042F60042C4F20102904201D1897B01635B
:10561000416941F00101416180BD0000426C0129F6
:1056200022F4004208BF02F50042426470470000C5
:105630002DE9F04F81B08146002089F80400022056
:1056400089F80100012A4FF0010089F8002040F09C
:10565000FD8040F200444FF48162C5F200048846A8
:105660004FF0A041A9F802204FF4817289F8070099
:1056700004F58060C9F80C10A9F80520C8E90010ED
:1056800008F10C006C21C8F80840FAF748FE04F154
:105690004000C8F8780008F17C003C21FAF73FFE92
:1056A00004F52060C8F8B80099F8030000285ED01F
:1056B000D9F80C70411E032900F0030E04D200201B
:1056C000BEF1000F2DD152E000F0FC0007F536626C
:1056D00008F11003C0F1000A00240097A2F5187128
:1056E000A2F1600BA2F51076A2F14005A2F50870B8
:1056F000A2F12007A2F5007C043C43F8041CC3E996
:105700000060C3F808C0C3E905B5C3E90772803279
:10571000A24503F11003E1D1009F6042BEF1000FEA
:1057200025D007EB401202F5106308EB800402F568
:105730003062BEF1010FE360626218D0421C07EBD9
:10574000421303F5106408EB820203F53063BEF1E7
:10575000020FD46053620AD0023007EB401101F50A
:10576000106208EB800001F53061C260416299F877
:105770000210002957D0D9F80CA04A1E032A01F0C4
:10578000030C01D200222CE001F0FC0E08F14409C8
:1057900000210024002200BF0AEB040707F5A066E1
:1057A00008EB820307F5A460C3E90F6007F5A8665C
:1057B0000AEB010549F82260043205F5805B05F526
:1057C000005005F5405607F5AC6705F58045803477
:1057D000964501F580419F64C3E91FB0C3E9216587
:1057E000DAD1BCF1000F1ED00AEB421000F5A06028
:1057F00008EB8201C8630AEB023000F58050BCF16F
:10580000010FC8670FD0501C0AEB401108EB800352
:105810000AEB003001F5A06100F58050BCF1020FE9
:10582000D963D86704D1002001B0BDE8F08F00BF74
:10583000901C0AEB401108EB80020AEB003000F5E7
:10584000805001F5A061D0670020D16301B0BDE8B0
:10585000F08F0000C17951B141698968C90708BF5B
:105860007047D0F8C800016821F00301016070475B
:10587000B0B5049D01F47F422868B2F5807FC1F382
:10588000074429D1816B21F4803181631CB1816B84
:1058900041F480118163C1684FF6BF72CFF6DF72A9
:1058A0001140C160C16821F48011C160016941F0FB
:1058B000010101610169C90709D00169C9071CBF5C
:1058C00001695FEAC17102D00169C907F2D1032001
:1058D00000F016FC0020B0BDC16841F04001C1607D
:1058E000016941F0010101610169C90709D001693C
:1058F000C9071CBF01695FEAC17102D00169C9070C
:10590000F2D1032000F0FCFB2868816B41F45021A8
:105910008163816B41F4001181631CB1816B41F49F
:1059200080118163142000F077F90020B0BD0000E1
:10593000406B1821C6F20801016170470068C26817
:1059400022F0C042C26049B1012918BF70474FF030
:105950000051C2681143C160704700BF4FF08041E1
:10596000C2681143C16070472DE9F04381B004461D
:10597000D0F8C80000260660606904F110050168CF
:1059800021F4C051016001680160016821F0030148
:105990000160217801291AD10168402241F00301F8
:1059A00001602868402141622846002100F08CF9FE
:1059B00028460121402200F087F9284602210022D2
:1059C00000F082F928460321002200F07DF92846E4
:1059D000102100F041FB284600F020F9D4F8148093
:1059E0004FF0FF3CC8F81060C8F81460C8F818C041
:1059F000C8F81C60E07801066CD05CFA80F100F019
:105A0000030E4FF0000903294FF0000380F084805B
:105A1000BEF1000F5ED004EB8305EE690021306813
:105A2000B0F1FF3F4FF0000002DC306840F09040E2
:105A3000FF2230603161B2606D6B2868B0F1FF3FCA
:105A400002DC286840F090410020BEF1010F29607F
:105A50002861AA603ED0581C04EB8005EE69002145
:105A60003068B0F1FF3F4FF0000002DC306840F0DA
:105A70009040FF2230603161B2606D6B2868B0F1F8
:105A8000FF3F02DC286840F090410020BEF1020F89
:105A900029602861AA601DD0981C04EB8002D76998
:105AA00000213868B0F1FF3F4FF0000002DC386899
:105AB00040F09040FF2338603961BB60506B026852
:105AC000B2F1FF3F02DC016841F09041016000212A
:105AD00001618360D8F8100040F01000C8F8100091
